:020000020000FC
:20000000004000B408408C140800683A00000000000000000000000000000000000000005A
:20000800060000F4C63FEC14C6C01315C037883ADFC00015D8400215D8800315D8C004156E
:20001000D9000515D9400615D9800715D9C00815000B307ADA000915DA400A15DA800B151E
:20001800DAC00C15DB000D15DB400E15DB800F15DBC01015D9401115EBFFFF04DBC01215A5
:200020000009313A2880004C10000326200002260020108000000706DF401215E8BFFF1717
:20002800E93FFF0400201D001000021EEBFFFF04DBC01215D9401117DF401217DFC0001732
:200030002801707AD8400217D8800317D8C00417D9000517D9400617D9800717D9C00817ED
:20003800DA000917DA400A17DA800B17DAC00C17DB000D17DB400E17DB800F17DBC01017B8
:20004000DEC01317EF80083ADEFFF904DFC00615DF000515DF0005040001883A0005313A7F
:20004800E0BFFC15E0BFFC17E0BFFF15E03FFD1500800044E0BFFE15E0FFFF17E0BFFE1733
:200050001884703A10001126E0BFFD17100690FA008000F41885883A10F0D317E0BFFD1740
:20005800100890FA008000F42085883A10B0D4171009883A183EE83A0001883A0005313ADA
:20006000E0BFFB15E0BFFB1700000706E0BFFE171085883AE0BFFE15E0BFFD1710800044CF
:20006800E0BFFD15003FE406E0BFFF15E0BFFF17103FDE1E0001883A0001883AE037883A8C
:20007000DFC00117DF000017DEC00204F800283ADEFFFB04DFC00415DF000315DF00030454
:20007800E13FFD1500BFFFC4E0BFFF15E03FFE15D0A6BF1710000726D0A6BF17E0FFFF1705
:20008000E1BFFE17E17FFD171809883A103EE83A00000206003DA03A0005883AE037883A25
:20008800DFC00117DF000017DEC00204F800283A06C000F4DEFE0014068000F4D6896814AE
:20009000008000B410B01F1400C000B418F1131410C00326100000151080010410FFFD3690
:2000980000262F0000263740003FFF06DEFFFC04DFC00315DF000215DF000204010000F4AE
:2000A00021302A0400205180E03FFF15E03FFE15010000F421302A040021AAC010803FCCD1
:2000A800103FFB1EE0BFFF1700FFFF9418800C16E0BFFF1710800044E0BFFF15E0BFFE17DF
:2000B000108003C81000041EE0BFFE1710800044E0BFFE15003FF906E03FFE15003FF106C3
:2000B800E03FFF15003FEA06DEFFFC04DFC00315DF000215DF000204E13FFF15E17FFE15B0
:2000C000E0BFFF17108000581000061EE0FFFE1700BFFFD41880031E010000F421302A049C
:2000C80000203BC0E0BFFF171000061EE0FFFE1700BFFFD41880031E010000F421302A0461
:2000D000002049400001883AE037883ADFC00117DF000017DEC00204F800283ADEFFFE0441
:2000D800DFC00115DF000015D839883A017FFFD40100004400202E80E037883ADFC0011796
:2000E000DF000017DEC00204F800283ADEFFFE04DFC00115DF000015D839883A017FFFD45E
:2000E8000009883A00202E80E037883ADFC00117DF000017DEC00204F800283ADEFFFD04FD
:2000F000DFC00215DF000115DF000104E13FFF15E0BFFF171009883A0021EB80008000F49D
:2000F80010A21C04E0FFFF1718800015E0FFFF17008000F410B0560418800715E0FFFF1748
:20010000008000F410B08F8418800615E0BFFF1700C0004410C00D45E0BFFF1710000CC574
:20010800E0BFFF1700CFBEB410C01615E0BFFF1700D15EB410C00515E0BFFF1710C00517C3
:20011000E0BFFF1711001617200B883A1809883A0023C7C01009883A2007883AE0BFFF17E9
:2001180010C01215E0BFFF1700C0004410C01745E0BFFF1700C0004410C00D050001883A8D
:20012000E037883ADFC00117DF000017DEC00204F800283ADEFFFD04DFC00215DF000115B2
:20012800DF000104E13FFF15008000F410A21C04E0FFFF1718800015E0BFFF171009883A27
:200130000021F1800001883AE037883ADFC00117DF000017DEC00204F800283ADEFFFD04F8
:20013800DFC00215DF000115DF000104E13FFF15E13FFF170020494001401804E13FFF1772
:200140000022BE00E037883ADFC00117DF000017DEC00204F800283ADEFFFD04DFC00215A7
:20014800DF000115DF000104E13FFF15E0FFFF17008000F410B0420418800815E0BFFF17B1
:2001500010800817000D883A01400134294400041009883A00222EC0E0BFFF1710800817DB
:20015800014000441009883A00223A40E13FFF1700212BC0E13FFF1700214700E13FFF1775
:2001600000216800010000B42121A80400264F00E13FFF1700214100010000B42121A804A3
:2001680000264F00E13FFF1700206740E037883ADFC00117DF000017DEC00204F800283A81
:20017000DEFFFC04DFC00315DF000215DF000204E13FFF152805883AE0BFFE05E0BFFF1786
:20017800E0FFFE0310C00D05E0BFFF171080071710C0160BE0BFFF1710C00C0DE0BFFF17FE
:2001800010800C0B1007883A00BFFE041884703A1007883AE0BFFF1710800D0310803FCC0F
:200188001884B03A1007883AE0BFFF1710C00C0DE0BFFF1710800C0B10BFFFCC100D883A85
:2001900001400B04E13FFF17002176001007883AE0BFFF1710C00B15E0BFFF1710800B174D
:20019800E037883ADFC00117DF000017DEC00204F800283ADEFFFC04DFC00315DF00021539
:2001A000DC000115DF000204E13FFE15E0BFFE171009883A00220D4010803FCC1000252641
:2001A80001400084E13FFE170020754010803FCC1004C03A10803FCC10000726000B883A1A
:2001B000E13FFE1700209BC01007883AE0BFFE1710C0051500001706000B883AE13FFE17E9
:2001B80000207BC01007883AE0BFFE1710C00D45000B883AE13FFE1700209BC01021883AAD
:2001C000E0BFFE1710800D4310803FCC1009883A0024F4001007883A180B883A8009883AF4
:2001C80000240D801009883A2007883AE0BFFE1710C00515E0BFFE1710800103E6FFFF04D4
:2001D000DFC00217DF000117DC000017DEC00304F800283ADEFFFD04DF000215DF000204B5
:2001D800E13FFF152805883AE0BFFE05E0BFFE03108000981000061EE0BFFF1710800717E3
:2001E000108017041080000B108000CC00000706E0BFFF1710800717108016841080000B28
:2001E80010BFFFCC1005D2FA108000CCE037883ADF000017DEC00104F800283ADEFFFC0477
:2001F000DFC00315DF000215DF000204E13FFF152805883AE0BFFE05E0BFFE0310000A26B8
:2001F800014012C4E13FFF170021874010BFFFCC1005D1BA108007CC1007883AE0BFFF1787
:2002000010C00CC500000A06E0BFFF1710800717108025841080000B10BFFFCC1005D1BABC
:20020800108007CC1007883AE0BFFF1710C00CC5E0BFFF1710800CC310803FCC100690BA35
:20021000008000F41885883A10A20C17E037883ADFC00117DF000017DEC00204F800283AA2
:20021800DEFFFD04DF000215DF000204E13FFF152805883AE0BFFE05E0BFFE0310000F1E6B
:20022000E0BFFF1710800717108011041080000B10BFFFCC1004943A1007883AE0BFFF1711
:2002280010800717108012041080000B10BFFFCC1887883AE0BFFF1710C00E15E0BFFF176F
:2002300010800E17E037883ADF000017DEC00104F800283ADEFFFD04DF000215DF00020474
:20023800E13FFF152805883AE0BFFE05E0BFFE0310000F1EE0BFFF171080071710801504F8
:200240001080000B10BFFFCC1004943A1007883AE0BFFF1710800717108015841080000B87
:2002480010BFFFCC1887883AE0BFFF1710C00F15E0BFFF1710800F17E037883ADF000017B8
:20025000DEC00104F800283ADEFFFD04DF000215DF000204E13FFF152805883AE0BFFE0513
:20025800E0BFFE0310000F1EE0BFFF1710800717108013041080000B10BFFFCC1004943A88
:200260001007883AE0BFFF1710800717108013841080000B10BFFFCC1887883AE0BFFF17D0
:2002680010C01015E0BFFF1710801017E037883ADF000017DEC00104F800283ADEFFFA046E
:20027000DFC00515DF000415DC400315DC000215DF000404E13FFD152805883AE0BFFC05EE
:20027800E0BFFC031000231E000B883AE13FFD17002086001009883A002506401021883A97
:20028000000B883AE13FFD1700208D401009883A002506401023883A000B883AE13FFD1734
:20028800002094801009883A002506401007883A180B883A8809883A00240D801007883A41
:200290001805883A100B883A8009883A0023C7C01007883A1805883A0150D2341009883AB3
:20029800002465001009883A2007883AE0BFFD1710C01315E0BFFD1710C013171805883AC2
:2002A000E6FFFE04DFC00317DF000217DC400117DC000017DEC00404F800283ADEFFFB04A3
:2002A800DFC00415DF000315DF000304E13FFF15E17FFE15E1BFFD15E0BFFE171000021E64
:2002B000E0BFFD1700001906E0BFFD171000021EE0BFFE1700001506E0FFFE17E0BFFD1703
:2002B8001880092EE0BFFD17E17FFE171009883A0023C200100D883AE17FFE17E13FFF17E5
:2002C0000020A9C000000906E0BFFE17E17FFD171009883A0023C200100D883AE17FFD174B
:2002C800E13FFF170020A9C00001883AE037883ADFC00117DF000017DEC00204F800283A10
:2002D000DEFFFB04DFC00415DF000315DC000215DF000304E13FFE15E17FFD1501519B34E4
:2002D800297C0004E13FFD1700244CC00080050EE0FFFE1700919B3410BC00041880121583
:2002E00000008B060150F234E13FFD1700244CC00080870EE0BFFE17E0FFFD1710C01215DF
:2002E80001517B34297C0004E13FFD1700244CC00080150EE0BFFE1710C0051701517B34A4
:2002F000297C00041809883A00244CC000800A16E0BFFE1710800717108017041080000BEA
:2002F8001080005410BFFFCC100D883A01400B84E13FFE1700217600E0BFFE1700C0004435
:2003000010C00D4500003506E0BFFE1710C0051701517B34297C00041809883A00245900D6
:2003080010000A16E0BFFE1710800717108017041080000B10BFFFCC10BFFF0C100D883AAA
:2003100001400B84E13FFE1700217600E0BFFE17108007171080258410C0000B00BE0FC42A
:200318001884703A1007883AE0BFFE1710C00C0DE0BFFE1710800C0B1021883AE13FFE1786
:200320000020EBC010803FCC100491BA8084B03A10BFFFCC100D883A014012C4E13FFE1745
:2003280000217600E0BFFE1710800D4310803FCC108000F01000051E0190FB04014007C4A0
:20033000E13FFE1700217600000004060180FB04014007C4E13FFE1700217600E0BFFE17CB
:2003380010800D4310803FCC1009883A0024F4001007883AE17FFD171809883A002465007E
:200340001007883A1805883A0150D2341009883A00240D801009883A2007883AE0BFFE178A
:2003480010C01415E0BFFE1710C014171809883A0021E4801007883A1809883A0023A68080
:200350001007883AE0BFFE1710C00E15E0BFFE1714001417E0BFFE1710800E171009883AD6
:20035800002506401007883A180B883A8009883A0024A4C01009883A2007883AE0BFFE1711
:2003600010C01515E0BFFE1710C01517180B883AE13FFE1700211C40E13FFE170020DD40CA
:20036800E0BFFE1710000105E13FFE1700214100E0BFFE1710C012171805883AE6FFFF04A0
:20037000DFC00217DF000117DC000017DEC00304F800283ADEFFFD04DFC00215DF00011543
:20037800DF000104E13FFF15E0BFFF1710800F1710BFFFCC100D883A01400AC4E13FFF1724
:2003800000217600E0BFFF1710800F171004D43A10BFFFCC100D883A01400A84E13FFF17BB
:2003880000217600E0BFFF171080101710BFFFCC100D883A014009C4E13FFF1700217600FE
:20039000E0BFFF17108010171004D43A10BFFFCC100D883A01400984E13FFF1700217600AB
:20039800E13FFF1700211100E0BFFF1710800E1710BFFFCC100D883A01400904E13FFF1776
:2003A00000217600E0BFFF1710800E171004D43A10BFFFCC100D883A01400884E13FFF179E
:2003A800002176000001883AE037883ADFC00117DF000017DEC00204F800283ADEFFFC047A
:2003B000DFC00315DF000215DF000204E13FFE15E03FFF15E0BFFF17108003881000381EFF
:2003B800E0BFFF17108000C810001B1EE0BFFF17100690BA008000F41885883A10A20C1712
:2003C000100B883A010EBF040023AC801009883A0024F4001009883AE0BFFE1710C01217A4
:2003C800180B883A00244CC000802116E0BFFF170080060EE0BFFF1710BFFFC41007883AE0
:2003D000E0BFFE1710C00CC500001D06E0BFFE1710000CC500001A06E0BFFF17100690BACB
:2003D800008000F41885883A10A20C17100B883A010B3B040023AC801009883A0024F400F3
:2003E0001009883AE0BFFE1710C01217180B883A00244CC000800616E0BFFF1710BFFFC47D
:2003E8001007883AE0BFFE1710C00CC500000406E0BFFF1710800044E0BFFF15003FC50677
:2003F000E0BFFE1710800CC310803FCC100690BA008000F41885883A10A20C171007883A5E
:2003F800E0BFFE1710C00D45E0BFFE1710800CC3E037883ADFC00117DF000017DEC00204D2
:20040000F800283ADEFFFC04DFC00315DF000215DF000204E13FFF15E17FFE15E0BFFF17B7
:2004080010800D0310803FCC10002F26E0BFFF1710800D0310803FCC10000326108000601B
:200410001000101E00002806015190F429540004E13FFE1700244CC00080050E01A08114DB
:2004180001400944E13FFF170021760000001E0601A0411401400944E13FFF1700217600F4
:2004200000001906015190F429540004E13FFE1700244CC00080050E01A0C114014009444A
:20042800E13FFF170021760000000E060151873429500004E13FFE1700244CC00080050E51
:2004300001A0811401400944E13FFF17002176000000040601A0411401400944E13FFF1757
:20043800002176000001883AE0BFFF1710800717108012841080000B10BFFFCCE037883AB3
:20044000DFC00117DF000017DEC00204F800283ADEFFFC04DFC00315DF000215DC00011575
:20044800DF000204E13FFE15E0BFFE1710C0121701517B34297C00041809883A00244CC012
:200450000080050EE0BFFE1710C01217E0BFFE1710C0131500000F06E0BFFE17140012179A
:20045800000B883AE13FFE1700207BC01009883A0024F4001007883A180B883A8009883A2B
:20046000002465001009883A2007883AE0BFFE1710C01315E0BFFE1710C01317180B883AF0
:20046800E13FFE17002100400001883AE6FFFF04DFC00217DF000117DC000017DEC00304EC
:20047000F800283ADEFFFB04DFC00415DF000315DC000215DF000304E13FFE15E17FFD1509
:200478000153E034E13FFD17002465001007883A1805883A1009883A0021E8001007883ACA
:200480001809883A0023A68001BFFFC4100B883AE13FFE170020A9C01007883AE0BFFE1785
:2004880010C011150153E034E13FFD17002465001007883A1805883A1009883A0021E8009D
:200490001021883AE0BFFE17108011171009883A002506401007883A180B883A8009883A9E
:2004980000240D801007883A1805883A1009883A0023A6801007883AE0BFFE1710C00F1536
:2004A000E0BFFE1710801117100B883A013FFFC40023BBC01007883AE0BFFE1710C01015D0
:2004A8000001883AE6FFFF04DFC00217DF000117DC000017DEC00304F800283ADEFFFD040A
:2004B000DFC00215DF000115DF000104E13FFF15E0BFFF1710800817000B883A1009883A5D
:2004B80000223A4001484644E13FFF1700215840E0BFFF1710C00817E0BFFF1710800904D0
:2004C000018000C4100B883A1809883A0021DC801007883AE0BFFF1710C00B15E0BFFF1767
:2004C80010800B170084803A1007883AE0BFFF1710C00A85E0BFFF1710800817014000444E
:2004D0001009883A00223A40E0BFFF1710800A83E037883ADFC00117DF000017DEC0020499
:2004D800F800283ADEFFFC04DFC00315DF000215DF000204E13FFF152805883AE0BFFE0576
:2004E000E0BFFE0310000826E0BFFF17108007171080000B108002141007883AE0BFFF17EC
:2004E80010C00C0D00000806E0BFFF171080071710C0000B00BFFDC41884703A1007883A20
:2004F000E0BFFF1710C00C0DE0BFFF1710800C0B10BFFFCC100D883A000B883AE13FFF1776
:2004F800002176001007883AE0BFFF1710C00B15E0BFFF1710800B171004C03AE037883A81
:20050000DFC00117DF000017DEC00204F800283ADEFFFD04DFC00215DF000115DF000104C3
:20050800E13FFF15000B883AE13FFF1700213640010000B42121A80400264F000140004468
:20051000E13FFF17002136401007883AE0BFFF1710C00A85E0BFFF1710800A83E037883A66
:20051800DFC00117DF000017DEC00204F800283ADEFFFD04DFC00215DF000115DF000104AB
:20052000E13FFF15E0BFFF1710800817000B883A1009883A00223A4001484784E13FFF1795
:2005280000215840E0BFFF1710C00817E0BFFF1710800904018000C4100B883A1809883AFF
:200530000021DC801007883AE0BFFF1710C00B15E0BFFF1710800817014000441009883AEC
:2005380000223A40010000B42121A80400264F00E0BFFF1710800817000B883A1009883AE3
:2005400000223A4001484704E13FFF1700215840E0BFFF1710C00817E0BFFF171080090486
:20054800018000C4100B883A1809883A0021DC801007883AE0BFFF1710C00B15E0BFFF17DE
:2005500010800B170084803A1007883AE0BFFF1710C00A85E0BFFF171080081701400044C5
:200558001009883A00223A40E0BFFF1710800A83E037883ADFC00117DF000017DEC0020410
:20056000F800283ADEFFFC04DF000315DF000304E13FFE15E17FFD15E03FFF15E0BFFF17DA
:20056800108000C810000E1EE0BFFF17100490FAE0FFFD171888D83A00C00084E0BFFF17EE
:200570001885C83AE0FFFE171885883A11000905E0BFFF1710800044E0BFFF15003FEF06EA
:200578000001883AE037883ADF000017DEC00104F800283ADEFFFB04DF000415DF00040419
:20058000E13FFE152805883A3007883AE0BFFD051805883AE0BFFC0DE03FFF15E0BFFF1730
:200588001080008810000E1EE0FFFC0BE0BFFF17100490FA1889D83A00C00084E0BFFF171A
:200590001885C83AE0FFFE171885883A11000905E0BFFF1710800044E0BFFF15003FEF06CA
:20059800E0BFFE17E0FFFD0310C009050001883AE037883ADF000017DEC00104F800283A43
:2005A000DEFFFB04DFC00415DF000315DF000304E13FFD15E03FFF15E0BFFF1710801CC83C
:2005A8001000111E00C01C84E0BFFF171885C83AE0FFFD1719000617E0FFFF1718C7883A81
:2005B00020C7883A1089883A008000F42085883A10A1D20B1880000DE0BFFF171080004490
:2005B800E0BFFF15003FEC0600801CC4E0BFFE15E0BFFE170080140EE0BFFE1710BFFFC491
:2005C00011403FCCE0BFFD1710C00617E13FFE1700A0003410BFFFC42085883A1085883AC6
:2005C8001885883A1080000B10BFFFCC100D883AE13FFD1700217600E0BFFE1710BFFFC48F
:2005D000E0BFFE15003FEA060001883AE037883ADFC00117DF000017DEC00204F800283AE3
:2005D800DEFFFB04DFC00415DF000315DF000304E13FFF152805883A3007883AE0BFFE05D4
:2005E0001805883AE0BFFD0DE0BFFF1710C00717E0BFFE031085883A1885883A1080000BDF
:2005E800E0FFFD0B10BFFFCC1885003A10C03FCCE0BFFF171080010310803FCC1884703A96
:2005F0001000251EE0BFFF1710800817000B883A1009883A00223A40E0BFFE03E0FFFD0B69
:2005F800180D883A100B883AE13FFF1700215F40E0BFFF1710C00817E0BFFF171080090433
:20060000018000C4100B883A1809883A0021DC801007883AE0BFFF1710C00B15E0BFFF1725
:2006080010800B170080070EE0BFFF1710C00717E0BFFE031085883A1885883AE0FFFD0BAB
:2006100010C0000DE0BFFF1710800817014000441009883A00223A40E0BFFF1710800B1726
:20061800E037883ADFC00117DF000017DEC00204F800283ADEFFFC04DFC00315DF000215B4
:20062000DF000204E13FFF152805883AE0BFFE05000B883AE13FFF170021A040E0BFFF1757
:2006280010000C0DE0BFFF1710800C0B10BFFFCC1005003A1009883AE0BFFF1710800C0B0D
:2006300010FFFFCC00BFFFD41885003A2084B03A10803FCC10003926E0BFFF17108008176B
:20063800000B883A1009883A00223A40E0FFFE0300BFE0041884B03A1007883AE0BFFF17C7
:2006400010C00C85E0BFFF17108009C4018000C4000B883A1009883A00259D80E0BFFF1743
:2006480010C00817E0BFFF1710800C8401800044100B883A1809883A0021DC801007883AF3
:20065000E0BFFF1710C00B15E0BFFF1710C00817E0BFFF17108009C401800084100B883A4D
:200658001809883A0021E0801007883AE0BFFF1710C00B15E0BFFF17108009C310803FCCF4
:200660001004923A1007883AE0BFFF1710800A0310803FCC1885883A1007883AE0BFFF17E7
:2006680010C00C0DE0BFFF1710800817014000441009883A00223A40003FBA06E0BFFF1775
:2006700010C00617E0BFFE031085883A1885883AE0FFFF1718C00C0B10C0000D01400044E1
:20067800E13FFF170021A040E0BFFF1710800C0BE037883ADFC00117DF000017DEC00204A5
:20068000F800283ADEFFFC04DFC00315DF000215DF000204E13FFF152805883AE0BFFE05CC
:20068800E0BFFE0310000826E0BFFF17108006171080000B108001141007883AE0BFFF1744
:2006900010C00C0D00000806E0BFFF171080061710C0000B00BFFEC41884703A1007883A76
:20069800E0BFFF1710C00C0DE0BFFF1710800C0B10BFFFCC100D883A000B883AE13FFF17CC
:2006A000002176001007883AE0BFFF1710C00B15E0BFFF1710800B17E037883ADFC001172E
:2006A800DF000017DEC00204F800283ADEFFFC04DFC00315DF000215DF000204E13FFE159C
:2006B000E0BFFE1710001705E03FFF15E0BFFE171080170310803FCC10803FE010007F1EC2
:2006B800E13FFE170020674010803FCC10005126E0BFFE171080174310803FCC1000112684
:2006C000E0BFFE1710C00517E0BFFE1711001617200B883A1809883A0023C7C01007883A35
:2006C8001805883A015162B4296000041009883A00244CC00080130EE0BFFE171000174572
:2006D00000001006E0BFFE1710C00517E0BFFE1711001617200B883A1809883A0024A4C00A
:2006D8001007883A1805883A0150F2341009883A002459001000030EE0BFFE1700C00044A2
:2006E00010C01745E0BFFE171080174310803FCC10000A26E0BFFE1710C00517E0BFFE1701
:2006E80011001617200B883A1809883A0023C7C01007883A1805883A00000906E0BFFE17BF
:2006F00010C00517E0BFFE1711001617200B883A1809883A0024A4C01007883A1805883AFC
:2006F800E0FFFE1718801215E0BFFE1710C01217180B883AE13FFE170020B400E0BFFE17E0
:2007000010001705E03FFF15E0BFFF171080FA28103FAE1EE13FFE170020674010803FCC61
:2007080010002A1EE0BFFF1710800044E0BFFF15003FF506E0BFFE171080170310800044D1
:200710001007883AE0BFFE1710C01705E0BFFE171080170310C03FCC1805883A100490BADA
:2007180010C5883A1085883A10C019041805883A100490BA10C5883A1085883A1009883AE0
:2007200000264F00E0BFFE1710C00517180B883AE13FFE170020B400E03FFF15E0FFFF178E
:20072800008000B410A1A7C410FF8836E13FFE170020674010803FCC1000061EE0BFFF1714
:2007300010800044E0BFFF15003FF4060001883A003F7E060001883A003F7C060005883A18
:20073800E037883ADFC00117DF000017DEC00204F800283ADEFFFC04DFC00315DF00021593
:20074000DF000204E13FFF15E17FFE15E0BFFF17108000581000061EE0FFFE1700BFFFD4B6
:200748001880031E010000F42130420400222300E0BFFF171000061EE0FFFE1700BFFFD498
:200750001880031E010000F421304204002227C00001883AE037883ADFC00117DF000017F2
:20075800DEC00204F800283ADEFFFE04DFC00115DF000015D839883A017FFFD40100004490
:200760000021CF40E037883ADFC00117DF000017DEC00204F800283ADEFFFE04DFC0011531
:20076800DF000015D839883A017FFFD40009883A0021CF40E037883ADFC00117DF000017D6
:20077000DEC00204F800283ADEFFFB04DFC00415DF000315DF000304E13FFF15E17FFE1553
:20077800E1BFFD15E1BFFD17E17FFE17E13FFF1700224080E037883ADFC00117DF000017E8
:20078000DEC00204F800283ADEFFFB04DFC00415DF000315DF000304E13FFF15E17FFE1543
:20078800E1BFFD15E1BFFD17E17FFE17E13FFF1700227980E037883ADFC00117DF0000179F
:20079000DEC00204F800283ADEFFFD04DFC00215DF000115DF000104E13FFF15E13FFF1774
:2007980000238F001007883A1805883AE037883ADFC00117DF000017DEC00204F800283A53
:2007A000DEFFFD04DFC00215DF000115DF000104E13FFF15E13FFF1700239E401007883A88
:2007A8001805883AE037883ADFC00117DF000017DEC00204F800283ADEFFFE04DF000115FA
:2007B000DF000104E13FFF15008000F410A22B04E0FFFF1718800015E0FFFF170080013470
:2007B8001084100418800315E0BFFF1700C0004410C00185E0BFFF17100001C5E0BFFF177A
:2007C000100001050001883AE037883ADF000017DEC00104F800283ADEFFFE04DF000115A0
:2007C800DF000104E13FFF15008000F410A22B04E0FFFF17188000150001883AE037883A66
:2007D000DF000017DEC00104F800283ADEFFFD04DFC00215DF000115DF000104E13FFF1575
:2007D800E13FFF170021F18001400504E13FFF170022BE00E037883ADFC00117DF00001753
:2007E000DEC00204F800283ADEFFFD04DF000215DF000204E13FFE15E0BFFE17E0BFFF15A8
:2007E80000800134108413371007883AE0BFFF1710C000050007883A0080013410C4133561
:2007F00000800134108413370001883AE037883ADF000017DEC00104F800283ADEFFFB04EB
:2007F800DFC00415DF000315DF000304E13FFE15E0BFFE1710800404E0BFFF15E0BFFE1766
:2008000010800317108002041007883A0080008418800035E0BFFE171080031710800304F9
:200808000007883A10C00035D8000015E1FFFF17018000B43187E204014000C40009883A7C
:200810000025FF00E0BFFE1700C0004410C001C5E0BFFE1700FFFFC410C002050001883A46
:20081800E037883ADFC00117DF000017DEC00204F800283ADEFFFC04DFC00315DF000215B2
:20082000DF000204E13FFF15E0BFFF1710800317108002040007883A10C00035D8000015EF
:20082800000F883A000D883A014000C40009883A0025FF00E0BFFF17100001C50001883ACE
:20083000E037883ADFC00117DF000017DEC00204F800283ADEFFFD04DFC00215DF0001159B
:20083800DF000104E13FFF15E0BFFF1710800317108000371080004C0084803A1007883A6F
:20084000E0BFFF1710C00185E0BFFF171080018310803FCC10000A1E0100028400264F00F5
:20084800E0BFFF1710800317108000371080004C0084803A1007883AE0BFFF1710C001856C
:20085000E0BFFF171080018310803FCC10000626E0BFFF17108001C310803FCC100002260C
:20085800E13FFF1700220740E0BFFF1710C00183E0BFFF1710C00105E0BFFF171080010304
:20086000E037883ADFC00117DF000017DEC00204F800283ADEFFFD04DFC00215DF0001156B
:20086800DF000104E13FFF15E0BFFF1710C00203E0BFFF171080040318C03FCC10803FCC04
:200870001885003A10803FCC1000121EE0BFFF1710C00403E0BFFF1710C00205E0BFFF17E9
:200878001080040310803FCC1080004C0084803A1007883AE0BFFF1710C00105E0BFFF17FB
:200880001080010310803FCC10000226E13FFF1700220740E0BFFF1710800103E037883A30
:20088800DFC00117DF000017DEC00204F800283ADEFFFE04DF000115DF000104E13FFF15B9
:20089000008000F410A23504E0FFFF1718800015E0BFFF1710000115E0BFFF17100003158F
:20089800E0BFFF17100002150001883AE037883ADF000017DEC00104F800283ADEFFFE04F6
:2008A000DF000115DF000104E13FFF15008000F410A23504E0FFFF17188000150001883A67
:2008A800E037883ADF000017DEC00104F800283ADEFFFD04DFC00215DF000115DF000104F7
:2008B000E13FFF15E13FFF17002227C001401404E13FFF170022BE00E037883ADFC00117B6
:2008B800DF000017DEC00204F800283ADEFFFC04DF000315DF000304E13FFF15E17FFE15CB
:2008C000E1BFFD15E0BFFF17E0FFFD1710C00215E0BFFF17E0FFFE1710C001150080004484
:2008C800E037883ADF000017DEC00104F800283ADEFFFE04DF000115DF000104E13FFF1558
:2008D000E0BFFF1710800117108003041007883A00810004188000350001883AE037883A4D
:2008D800DF000017DEC00104F800283ADEFFFE04DF000115DF000104E13FFF15E0BFFF176C
:2008E00010800117108003040007883A10C000350001883AE037883ADF000017DEC00104B6
:2008E800F800283ADEFFFD04DF000215DF000204E13FFF152805883AE0BFFE05E0BFFE0378
:2008F00010000626E0BFFF1710800117108003040007883A10C0003500000606E0BFFF1729
:2008F80010800117108003041007883A00810004188000350001883AE037883ADF000017E4
:20090000DEC00104F800283ADEFFF704DF000815DF000804E13FFA15E17FF915E1BFF815D1
:20090800E0FFF917E0BFF8171885883AE0BFFD15E0BFFA1710800404E0BFFC15E0BFF8177C
:20091000E0BFFF1500800044E0BFFE15E0BFFA1710800117108005041009883AE0BFFA1722
:200918001080021700C000441884983A20800035E0BFFA171080011710800037E0BFFA1700
:20092000108001171080020410800037E0BFFB15E0BFFB171080100C10000226E0BFFE17BA
:200928001000041EE0BFFB171080200C1000011E003FF206E0BFFB171080100C1000152602
:20093000E0BFFE170080130EE0BFFE1710BFFFC4E0BFFE15E0FFF917E0BFFD1718800B2EE7
:20093800E0BFFA1710800117108001041009883AE0BFF91710C00044E0FFF9151080000394
:2009400010803FCC208000350000020600BF0004E0BFFE15E0BFFB171080200C103FD726F1
:20094800E0BFFF1710000326E0BFFF1710BFFFC4E0BFFF15E0BFFE1710800044E0BFFE156D
:20095000E0BFFF17103FCD1EE0BFFA1710800404E0FFFC1718BFC91EE0BFFA171080011748
:200958001080020410800037E0BFFB15E0BFFB171080080C1000011E003FF706E0BFF81705
:20096000E037883ADF000017DEC00104F800283ADEFFF804DFC00715DF000615DF00060434
:20096800E13FFF15E17FFE15E1BFFD15E0BFFF1711000117E0BFFF1711400217E0BFFF1764
:200970001080040400C00044D8C00215D8800115E0BFFD17D8800015E1FFFE17E1BFFD17E5
:20097800002706801007883AE0BFFF1710C00315E0BFFF1710800317E037883ADFC001174D
:20098000DF000017DEC00204F800283ADEFFF704DFC00815DF000715DF000704E13FFF15B6
:20098800E17FFE15E1BFFD15E1FFFC15E0BFFF1710C00117E0BFFF171100021700800044F9
:20099000D8800215E0BFFD17D8800115E0BFFC17D8800015E1FFFE17E1BFFC17200B883A03
:200998001809883A002706801007883AE0BFFF1710C00315E0BFFF1710800317E037883A01
:2009A000DFC00117DF000017DEC00204F800283ADEFFF704DFC00815DF000715DF00070413
:2009A800E13FFF15E17FFE15E1BFFD15E1FFFC15E0BFFF1710C00117E0BFFF171100021769
:2009B00000800044D8800215E0BFFC17D8800115E0800217D8800015E1FFFE17E1BFFD1745
:2009B800200B883A1809883A002706801007883AE0BFFF1710C00315E0BFFF1710800317CD
:2009C000E037883ADFC00117DF000017DEC00204F800283ADEFFF704DFC00815DF00071504
:2009C800DF000704E13FFF15E17FFE15E1BFFD15E1FFFC15E0BFFF1710C00117E0BFFF1789
:2009D0001100021700800044D8800215E0BFFD17D8800115E0BFFC17D8800015E1FFFE1775
:2009D80001800044200B883A1809883A002706801007883AE0BFFF1710C00315E0BFFF1792
:2009E00010800317E037883ADFC00117DF000017DEC00204F800283ADEFFF604DF000915F5
:2009E800DF000904E13FF915E17FF815E1BFF715E0FFF817E0BFF7171885883AE0BFFC1512
:2009F000E0BFF717E0BFFF15E03FFE1500800044E0BFFD15E0BFF9171080011710800504F0
:2009F8001009883AE0BFF9171080021700C000441884983A20800035E0BFF917108001170E
:200A000010800037E0BFF917108001171080020410800037E0BFFB15E0BFFB171080100C4F
:200A080010000226E0BFFD171000041EE0BFFB171080200C1000011E003FF206E0BFFB172D
:200A10001080100C10001226E0BFFD170080100EE0BFFD1710BFFFC4E0BFFD15E0BFFF17D6
:200A180010000926E0BFFF1710BFFFC4E0BFFF15E0BFF91710800117108001040007883AD0
:200A200010C000350000020600BF0004E0BFFD15E0BFFB171080200C103FDA26E0BFF917CA
:200A28001080011710800037E0BFFA15E0BFFE1710000426E0BFFE1710BFFFC4E0BFFE15AB
:200A300000000506E0BFF81710C00044E0FFF815E0FFFA1710C00005E0BFFD1710800044A1
:200A3800E0BFFD15E0BFFE17103FC61EE0FFF817E0BFFC1718BFC31EE0BFF9171080011757
:200A40001080020410800037E0BFFB15E0BFFB171080080C1000011E003FF706E0BFF7171D
:200A4800E037883ADF000017DEC00104F800283A20800017DEFFFA04DC000415108006178E
:200A50003021883A3180001700C00404DFC00515D8000015D8000115D8C00215D8000315B0
:200A5800D80F883A103EE83AD88001171080018C108001981000071ED8C000170080004407
:200A600080C00015DFC00517DC000417DEC00604F800283A0005883ADFC00517DC000417F4
:200A6800DEC00604F800283AD8C000170080004419800126F800283A00800184F800283A80
:200A7000008000F410A24904208000150022EAC1DEFFFE04008000F4DC000015DFC0011578
:200A780010A24904208000152021883A0022EAC0014002048009883ADFC00117DC0000179F
:200A8000DEC002040022BE01DEFFFA04DC800415D8800817DC800617DC400315DC0002156A
:200A8800DFC00515DC400917210001173021883A9080122639400117290005262080000739
:200A900010800AA01000061E0025B2001000041E008000448C8000158C0001158880031528
:200A98000005883ADFC00517DC800417DC400317DC000217DEC00604F800283AD8800717A2
:200AA0001140011729000F262080000710800AA01000091ED9C00115D90000150025B200E3
:200AA80010000826D9C00117D900001739400117217FE51E003FE60638800117113FE81ECA
:200AB000003FE3068C000215003FE5062100011729400117DEFFFD04DC400115DC00001576
:200AB800DFC002153023883A3821883A214007262080000710800AA01000021E0025B200C2
:200AC000100002260005883A00000606008002048080031500800184808001158440001579
:200AC80000800044DFC00217DC400117DC000017DEC00304F800283ADEFFFB04DC8002151D
:200AD000DC0000152025883A2821883A2100011729400117DFC00415DCC00315DC400115AB
:200AD80021401526208000073027883A3823883A10800AA01000021E0025B20010000E2600
:200AE00089C001283800141E80800017980D883A900B883A108005178009883ADFC004178E
:200AE800DCC00317DC800217DC400117DC000017DEC005041000683A00800044DFC00417C5
:200AF000DCC00317DC800217DC400117DC000017DEC00504F800283A0005883A003FF70690
:200AF80000238EC1008000F410A261042080001500229C01DEFFFE04008000F4DC00001529
:200B0000DFC0011510A26104208000152021883A00229C00014003048009883ADFC0011749
:200B0800DC000017DEC002040022BE01DEFFFA04DC800415DC800617DC400315DC00021565
:200B1000DFC005152021883A2823883A91800B2681000217880B883A20800017DC8006159D
:200B180010800817DFC00517DC800417DC400317DC000217DEC006041000683A210001171E
:200B200039400117214009262080000710800AA0103FEF1ED9C00115D98000150025B20063
:200B2800D9800017D9C00117103FE91E00800184DFC00517DC800417DC400317DC000217D4
:200B3000DEC00604F800283ADEFFF504DCC004153880011724C00117DF000915DDC0081595
:200B3800DD800715DD400615DC000115DFC00A15DD000515DC800315DC400215DD800B171F
:200B4000DF000C17DDC00D17DD400E172821883A988021269D0000072025883A3823883A5E
:200B4800A0C00AA01800061E100B883A9809883AD98000150025B200D98000171000162606
:200B5000B5C02C2691000217880F883A800B883A20800017DD400E15DDC00D15DF000C15B8
:200B5800DD800B1510800717DFC00A17DF000917DDC00817DD800717DD400617DD00051729
:200B6000DCC00417DC800317DC400217DC000117DEC00B041000683AAD800015A98001153F
:200B680080001116B421883ABC001D2600800044A88003150005883ADFC00A17DF000917A6
:200B7000DDC00817DD800717DD400617DD000517DCC00417DC800317DC400217DC000117A5
:200B7800DEC00B04F800283A843FFF98803FF11E003FEE06E140011799400726A5000AA06D
:200B8000A03FD01E9809883AD98000150025B200D9800017103FCB1EA9800215003FE506CE
:200B880000800184003FE206DEFFFB04DCC00315DC800215DC400115DC000015DFC0041543
:200B90002025883A2827883A3021883A3823883A0022ACC010C03FCC18000D1E91000217A7
:200B9800880F883A800D883A20800017980B883A10800617DFC00417DCC00317DC800217E7
:200BA000DC400117DC000017DEC005041000683ADFC00417DCC00317DC800217DC4001179C
:200BA800DC000017DEC00504F800283AF800283A0005883AF800283A0005883AF800283A9D
:200BB000014002040022BE01210001172940011721400C262080000710800AA01000071E9A
:200BB800DEFFFF04DFC000150025B2001005003ADFC00017DEC00104F800283A0005883AE9
:200BC000F800283A00800044F800283A008000F410A285042080001500229C01DEFFFE049B
:200BC800008000F4DC000015DFC0011510A28504208000152021883A00229C0001400604F7
:200BD0008009883ADFC00117DC000017DEC002040022BE01DEFFF604DC800315DC800A17C3
:200BD800DDC00815DD800715DD400615DC000115DFC00915DD000515DCC00415DC40021504
:200BE000302F883A2021883A282B883A382D883A3480302680800317147FFFC410001D26C8
:200BE80010800044100490FAACFFFF6080A1883A80800117B00F883AA80B883A1100008CE3
:200BF0008C7FFFC410C0004C20000F261005D23A1829883A1800042698000B1EB98000172F
:200BF8003085883A1080001781000017B88D883A20800017DC80001510800817103EE83AD9
:200C000010C0011018000F2688BFFFE0843FFE04103FE72600800044DFC00917DDC0081720
:200C0800DD800717DD400617DD000517DCC00417DC800317DC400217DC000117DEC00A041C
:200C1000F800283AA5003FCCA03FF32610800054003FF10621000117394001172140052652
:200C18002080000710800AA0103FCA1E0025B200103FC81E00800184003FE706DEFFE504A1
:200C2000DC001115DC001E17DDC01815DD40161580800417DCC01415DC401215DFC01A159E
:200C2800DF001915DD801715DD001515DC8013151080040CD9000515DD401B17282F883A90
:200C30003023883A3827883A100002262080021780800415D880051711000117D8801D173B
:200C3800A880782699400117290082262080000710800AA01000021E0025B20010007D2679
:200C4000B8012B16D8801D1715EDC83A00800084D8800915B8BFFF988825883A0039883A18
:200C48008023883AD80007C5B021883A01000044D8800615A82D883AD880051712400317C1
:200C50004D3FFFC4480094264A400044481290FADD801B15B8FFFFA0A02D883ADD001B1700
:200C5800126B883AD8C00815B805883A20C03FCC802F883AD8C00415A821883A102B883A74
:200C60008080011789C00417D8000C15D8000D15D8000E15D8000F15D9C010151180004C73
:200C68001009D23A3000A226A2000017918000544109883A21000017A111883AB800032698
:200C7000D8C00417BA09803A1900A1261080008C1000041ED880061710009A2600BFFF44BF
:200C7800308C703A81000017D8C00C04980F883A20800017D8C00315D8C01D17DA0000152B
:200C8000A80B883AD8C00215D8C01C17D8C0011510800717103EE83A89800217D9000E1779
:200C8800DA000F173108B03A89000215418001983000E926D9800C1742800098300F883A19
:200C90005000EE26E1C03FCC8BC0001738007A1E78003E26798081263000852620800110FA
:200C98008B0003171000551E2080004C10000326888004171080008C1000501E6000011EB3
:200CA000030000444000011E020000446015883A4284F03A10800110401D883A10004E26DD
:200CA8007294703A528001105000EB268900021700800044880000158880031507000044CA
:200CB00000002C06D8801C17114001172900BF262080000710800AA01000B21ED90004153D
:200CB8000025B2001000B926D900041799400117293F811E8540001584400115B800AE163A
:200CC000D8801D17ADD3883A1240A42600800044808003150039883AE005883ADFC01A17DC
:200CC800DF001917DDC01817DD801717DD401617DD001517DCC01417DC801317DC401217C1
:200CD000DC001117DEC01B04F800283AD9C00D178980001589C0011530009A262000782601
:200CD800D8C005171039883A198002173180004C303FE92621000120203FE71EB5BFFFC433
:200CE000B0BFFFE0843FFE04103F7D26B821883AA02D883AA82F883AD88007C3103FDE26B7
:200CE800D88009170009883A10800058103FDA2600800044D8800915003F5F066015883A5D
:200CF000401D883A0300120E02002C0E4284F03A10800110103FB21E408001081000552662
:200CF800D9800C174280008CD8800D17898000150039883A888001158A000315503FC51E4B
:200D00004080004C1000992689000217003FD906408001101000381E4080004C1000321E95
:200D08004080005C10800108103FEE1E003FA006900D883A003F6006783F861E303F871E63
:200D1000003FCC0639C000CC383F641E003FCB0600800044D88007C5003FC80688800117CF
:200D1800D9800D171184B03A88800115003FC10610803FCC103F791E003FBE06608001082E
:200D2000100006266080004C10004126D8800517108002171080008C10003D26D9800C17AC
:200D2800A800590ED880061710005A26D8C01D1798800017D9C01C17D8C000151080081774
:200D3000DA800B15DB000A15A80B883A9809883A103EE83ADB000A17DA800B171011883A8C
:200D3800101D883A003FB906D8800517108002171080008C103FCA26A8001316D8801D17D9
:200D40007D5F883A13C04A2602004E16D8C01D173545883A18805726028000440200004423
:200D48005080005C10800108103F60265280008C003FB1066280008C6011883A003FAE0609
:200D50001039883A003F8D06D8800817DB800A1510003B1ED8C01D1798800017D9C01C1785
:200D5800D8C0001510800817DA000B15780D883AA80B883A9809883A103EE83ADB800A171A
:200D6000DA000B171019883A1015883A003F8E066080005C6011883A003FE2060080018437
:200D6800003F5B069880011720BF5226B83ED50E002D883A003ED506BA7FFF98483F551E99
:200D7000003F52061039883A003F6A06844002150039883A003F5006D9C00C178821883A80
:200D78004023883AD8C00D1781C000158440031580C001151039883A003F47068821883AF0
:200D80004023883A003FF706D8C01D173545883A188002266011883A003FC1066080019C74
:200D8800108001081000131E03800184003F1C06028001840200120E03000184003F6306AF
:200D9000023FB50E4080005C10800108103F182603000044003F6006008000848800001570
:200D98008880031507000044003F2B061039883A003F29060280008402000184003F5A06BB
:200DA00002000184003FA906DEFFF004DD800C15DD400B15DD000A15DC800815DC000615C6
:200DA800DFC00F15DF000E15DDC00D15DCC00915DC4007152021883AD90001152825883AB4
:200DB0003029883A382B883A0022ACC0102D883A10803FCC1000551EAC4002178880040C1B
:200DB80010007C1ED88001171400031785FFFFC48000752684000044802090FA88C0004CEB
:200DC000D8C000151421883A000027061005D23A98000326A18000173085883A108000170A
:200DC800A08D883A81000017D9C00204900B883A2080001710800617103EE83A102D883AB5
:200DD00010803FCC10001426D88005171080021810002226D8800317110001102000041ED2
:200DD800E000031E00FFFF4410C4703AD8800315A880031710001D26A9000017D940021743
:200DE0002140561E20003626A8800117D90003171104B03AA8800115BDFFFFC4B8BFFFD865
:200DE800843FFE041000482680800117D8C00017D80002151700008CD8000315DC4004152A
:200DF000D8000515E0C8B03A14C0004C203FF226A03FCE1E000D883A003FD206983FDD263D
:200DF80080800017D8800515003FDA06D9000217D8800317A9000015D9000417A8800115DF
:200E0000A9000215D9000517A9000315110001102000061E1100008C20002126D880011782
:200E0800108002171080004C103FDB1EB005883ADFC00F17DF000E17DDC00D17DD800C177C
:200E1000DD400B17DD000A17DCC00917DC800817DC400717DC000617DEC01004F800283A0F
:200E1800D90005172140022028000A1E114002202800081E2100011711400117217FC22607
:200E20002080000710800AA01000021E0025B200103FBD2600800084A8800115003FE3062E
:200E28001080004C103FE126D8800117108002171080008C103FDD26BDFFFFC4B8BFFFD824
:200E3000843FFE04103FB81EAD800117B02CC03A003FD60684400217003F820600800084DA
:200E3800A8000015A8800115003FD00600251E8100A00034DEFFFB0410BFFFC4DC40011552
:200E40001122703ADC8002158824D5FADC000015DFC0041594BFE044DCC00315908005C816
:200E48002021883A1000151E2027883A900020160080203410BFFFC414A3D83A8904703A0F
:200E500010001026015C52B4297CB2840023C7C0000B883A1009883A00244CC00080090EE5
:200E58008000030E008020341485D83A1427883A0460303A84C4703A00000306009FE034F1
:200E60008880082E8005883ADFC00417DCC00317DC800217DC400117DC000017DEC005043A
:200E6800F800283A200B883A0023C7C0003FF606015C52B4297CB2840023C7C0000B883A89
:200E70001009883A00244CC000BFEE0E800002160005883A003FEC06883FEA2600AFE03472
:200E7800003FE9062006D5FA2005883A18C03FCC18FFE044194005C828000C1E18000E167E
:200E800001002034213FFFC420C9D83A208A703A280008260140103428C7D83A0108303A3C
:200E88001885883A2084703AF800283A18C0201818000626F800283A18FFFFD820A0002CBB
:200E9000183FFC1E108FE034F800283ADEFFFF04200B883ADFC000150023C7C0DFC00017E3
:200E9800DEC00104F800283ADEFFFE040153C034DC000015DFC001152021883A00244CC03D
:200EA0001000060E8009883A0024ED00DFC00117DC000017DEC00204F800283A0153C034C2
:200EA8008009883A0024A4C01009883A0024ED0000E0003410C5883ADFC00117DC00001716
:200EB000DEC00204F800283A20001A16000F883A2800020E014BC83A39C0005C200D883A39
:200EB80000C000442900092E0080080400C000440000010610001226294B883A10BFFFC40F
:200EC00018C7883A293FFB3618000D260005883A31400236314DC83A10C4B03A1806D07A77
:200EC800280AD07A183FFA1E380001260085C83AF800283A0109C83A01C00044003FE406A5
:200ED0000005883A003FF80620001916000F883A2005883A2800010E014BC83A00C000446E
:200ED8002900092E0180080400C000440000010630000D26294B883A31BFFFC418C7883A15
:200EE000293FFB36180008261806D07A114001361145C83A280AD07A183FFB1E3800012680
:200EE8000085C83AF800283A2005883A003FFB060109C83A01C00044003FE506200D883AB8
:200EF0002900152E280014160080080400C000440000020610000E2628000516294B883ACF
:200EF80010BFFFC418C7883A293FFA36180008260005883A31400236314DC83A10C4B03A1B
:200F00001806D07A280AD07A183FFA1EF800283A0005883AF800283A00C00044003FF406C6
:200F08002005883A2900132E280012160180080400C000440000020630000C2628000516EA
:200F1000294B883A31BFFFC418C7883A293FFA36180006261806D07A114001361145C83A13
:200F1800280AD07A183FFB1EF800283A2005883AF800283A00C00044003FF606280CD5FAF0
:200F20002006D5FA2010D7FA01C020342818D7FADEFFFC0439FFFFC43914703A32403FCC49
:200F2800DC800215DC400115395A703A1C403FCCDFC00315DC000015501C90FA681690FABA
:200F3000500D883A4025883A8A45C83A43004B260080390E4800632688C03FE01800401E61
:200F38005AC1003410C007081800AB1E010008042089C83A5908983A5884D83A2008C03A8F
:200F40001104B03A7085C83A10C1002C1800852604010034843FFFC41420703A8009883AF3
:200F4800002515C010FFFEC480C4983A1C4095161C47C83A1C000044010008042409C83AA0
:200F50001108983A1404D83A0023883A2008C03A1104B03A10C001CC1800042610C003CCE8
:200F580018C001201800011E1080010410C1002C18006E2688C0004419003FE020006D1E9C
:200F6000100491BA100CD27A18803FCC100495FA94803FCC902497FA1184B03A1484B03AFF
:200F6800DFC00317DC800217DC400117DC000017DEC00404F800283A100030264C49C83A17
:200F700088007F1E70003F26213FFFC42000B32648803FE010007D266025883A6815883A2B
:200F780050005426008020345180103410BFFFC4308C703A00FFFFC4003FE3060080500EE6
:200F800048002A2688C03FE0183FF51E5AC1003410C007081800741E00C008041887C83AA3
:200F880058C6983A5884D83A1806C03A10C4B03A1385883A10C1002C18003A268C400044B6
:200F900088C03FE018003B1E1008D07A00DF803418FFFFC41080004C20C8703A2084B03A9E
:200F9800003FBC0658001A2610BFFFC410007C2688C03FE0183F9B26003FD9068880004473
:200FA00010803F8C1000461E88006E1E70007F26583FBD2672C5C83A1101002C200083267F
:200FA8005B85C83A6025883A003FAA065800082610BFFFC41000682688C03FE0183FD426A3
:200FB000003FC7066025883A6815883A4823883A88803FE0103FC21E0080203410BFFFC4A6
:200FB800508C703A8807883A003FA706881F883A8C40004488803F8C10004A1E78005A1EA2
:200FC00070006E26583FA02672C5883A10C1002C18006F2600FF003418FFFFC410C4703A82
:200FC8000440004410C001CC183F8C1E1014D0FA003FE70600FFFFC4000D883A003F920661
:200FD000103FEA264C49C83A8800302648803FE0103FA21E73810034208007081000491EE9
:200FD800008008041105C83A7084983A7108D83A1004C03A2088B03A22C5883A4823883A8E
:200FE000003FAC06013F0034213FFFC488E3C83A1104703A003F6F0600800044003F590627
:200FE80072E1C83A8081002C1000231E803F5B1E0025883A0007883A000D883A003F7206A8
:200FF00048803FE0103F841E738100342080070810000726010000445905C83A6025883A09
:200FF8004823883A003F480600800044003F9006008008041105C83A7084983A7108D83A91
:201000001004C03A2088B03A003FF306703FAE26213FFFC420002B2648803FE0103FCE26B7
:20100800003F6E0688803FE0103FC21E72C5883A1004D07A003FBB065BA1C83A6025883A23
:20101000003F36067000091E583F631E0025883A380D883A003F670672C5883A003F750649
:2010180072C5C83A003F2806703F5C26583F5C2620C0102C183F5A262940102C283F581E53
:20102000003F550601000044003FBB06580008266025883A680D883A003F3B065B85C83A6B
:201028006025883A4823883A003F1706103F9D1E0025883A000D883A003F3306680D883A69
:20103000003F310672C5883A4823883A003F59060023883A003F9306DEFFF6042006D5FADD
:20103800DD400615202AD7FA00802034DC800315DC00011510BFFFC4DFC00915DDC0081502
:20104000DD800715DD000515DCC00415DC40021518C03FCC1120703AA825883A18007B2632
:2010480018803FE010007E1E800490FA1D3FE0440023883A14010034002D883A2806D5FA7D
:2010500001002034213FFFC418C03FCC282ED7FA2166703A1800532618803FE010001D1E3A
:20105800980A90FA18FFE044A0E9C83A2CC100340007883A1C62B03A882290BA008000B40C
:20106000BD6AF03A8885883A10906517A809883A1000683A000244580002439800024258F8
:20106800000241E8000242580002440400024258000241E80002439800024398000244048C
:20107000000241E8000241F4000241F4000241F40002441CA53FC04498006D1E00C00084DF
:20107800000032060027883AB825883A9821883A182D883AB08000A010007F1EB08000E089
:201080001000901EB5800060B000141EA0C01FC400C0650E808001CC10000426808003CCCF
:20108800108001201000011E840001048082002C1000042600BE003410BFFFC480A0703A29
:20109000A0C0200418803FC810006B1E800491BA1020D27A00000306A825883A0007883AD8
:201098000021883A18803FCC100495FA902497FA1404B03A1484B03ADFC00917DDC00817CB
:2010A000DD800717DD400617DD000517DCC00417DC800317DC400217DC000117DEC00A0480
:2010A800F800283A9800321E00C000441C62B03A882290BA008000B4BD6AF03A8885883A32
:2010B0001090B317A809883A1000683A000243980002439800024258000241E40002425878
:2010B8000002440400024258000241E4000243980002439800024404000241E4000241F4A9
:2010C000000241F4000241F40002441880000D1E044001040029883A05800044003F8706D0
:2010C8008000041E0440020405003FC405800084003F82060440030405003FC4058000C4A8
:2010D000003F7E068009883AD9400015002515C010FFFEC480E0983A00FFE284D940001732
:2010D80018A9C83A0023883A002D883A003F73069809883A002515C0A087883A113FFEC451
:2010E0001D001D849926983A0007883A003F790600C000C4003F77062025883A00FFFFC411
:2010E8000021883A003FAF060080004410C7C83A18800708103FA91EA50027848528983AE8
:2010F00080C6D83AA020C03A1C20B03A808001CC10000426808003CC108001201000011EF2
:2010F800840001048081002C1000342600C000440021883A003F9B0600FFFFC40021883A4C
:20110000003F9806040020340025883A843FFFC400FFFFC4003F93060027883A8080102C6E
:20110800100008269880102C1000061E008020349C00103410BFFFC480A0703AB825883A52
:20111000003FF306008020348400103410BFFFC480A0703A003FEE068004917A9808917A22
:201118001100122EA53FFFC4014006C40021883A1007883A297FFFC41085883A8421883ACF
:2011200018000116110002361105C83A84000054283FF71E1004C03AA0C01FC41420B03A5C
:20112800A825883A00FF5B16003FBF061105C83A0140068404000044003FED06802091BA5C
:201130000007883A8020D27A003F6606200CD5FA00C0203418FFFFC431803FCC32003FD851
:201138002012D7FA280ED5FA1908703A2804D7FA1946703A40000A2639403FCC29C03FD8CA
:2011400038000B263000151E200F003A2800101E18000F1E2000091E0005883AF800283A57
:201148002000191E39403FCC29C03FE038000B261800151E3000052648800B2600800044D8
:201150004800052600BFFFC4F800283A200F003A383FF926103FFB26F800283A283FF61EEC
:20115800183FF51E003FF50629800416317FF9161900023620FFE82E003FF606103FF11E32
:2011600000800044F800283A00BFFF84F800283A200CD5FA00C0203418FFFFC431803FCC10
:2011680032003FD82012D7FA280ED5FA1908703A2804D7FA1946703A40000A2639403FCC51
:2011700029C03FD838000B2630001B1E200F003A28000B1E18000A1E20000B1E0005883A83
:20117800F800283A20000C1E39403FCC29C03FE0380011261800081E3000021E200F003AC1
:2011800038000B1E48800626008000444800092600BFFFC4F800283A00800084F800283A85
:2011880029800816314002161900063620FFEB2E103FF726F800283A283FF21E183FF11EC7
:20119000003FF106103FF21E00800044F800283ADEFFF504DC4002152022D5FADC00011580
:2011980004002034DD800715843FFFC4DFC00A15DF000915DDC00815DD400615DD0005153C
:2011A000DCC00415DC8003158C403FCC202CD7FA8120703A8800502688803FE01000531E21
:2011A800802090FA8C7FE0440025883A840100340029883A2804D5FA01002034213FFFC4D0
:2011B00010803FCC282ED7FA2166703A10004C2610C03FE018001E1E980890FA10BFE0444A
:2011B80088A3883A24C100340007883A90800428B5EAF03A8F0000441000481E902490BAFC
:2011C000008000B49085883A1091C4171000683A0002481C00024768000247680002476461
:2011C80000024770000247700002497C00024764000247700002497C00024770000247643B
:2011D0000002490C0002490C0002490C000249E08C403FC498006F1E9480009400C00084EF
:2011D800003FE206B82B883A9821883A1829883AA08000A01000261EA08000E01000AE1EBD
:2011E000A080006010004E260007883A0009883A1C003FCCA8803FCC802095FA100497FA29
:2011E8008120B03A8084B03ADFC00A17DF000917DDC00817DD800717DD400617DD00051745
:2011F000DCC00417DC800317DC400217DC000117DEC00B04F800283A80005D1E04800104FE
:2011F8000023883A05000044003FB2068000541E0480020404403FC405000084003FAD0674
:201200009800471E9480005400C00044003FB70600FFFFC40009883A003FDD068028D43A04
:201208009CBFFFCC843FFFCC900B883A8009883A00251B009826D43A900B883AA009883A96
:201210001025883A00251B00980B883AA009883A1029883A00251B009809883A800B883ACC
:201218001027883A00251B009006D43A1505883A1887883A1D00022E0080007498A7883A5A
:201220001808943A1820D43A94BFFFCC2489883A200A91BA84E1883A802091BA2008D6BAAE
:201228002804C03A80C2002C1108B03A8120B03A18005B268004D07A8400004C1420B03A2F
:20123000E0C01FC400C0320E808001CC10000426808003CC108001201000011E84000104DC
:201238008082002C1000042600BE003410BFFFC480A0703AE0C0200418803FC8103FC41E4C
:20124000802091BA8008D27A003FA106B02B883A003F9706948000D400C000C4003F73064C
:201248009809883A002515C010FFFEC488A3C83A98E6983A8C7FE2840007883A003F6B06F1
:201250000480030404403FC4050000C4003F59068009883AD9400015002515C010FFFEC401
:20125800047FE28480E0983AD940001788A3C83A0025883A0029883A003F4E060100203444
:20126000002B883A213FFFC400FFFFC4003F80060080004410C7C83A18800708103F7A1EAC
:20126800E10027848108983A80E0D83A2008C03A8120B03A808001CC10000426808003CC8A
:20127000108001201000011E840001048081002C1000152600C000440009883A003F6C06FD
:201278008080102C100008269880102C1000061E008020349900103410BFFFC42088703ABF
:20128000B82B883A003FE006008020348100103410BFFFC42088703AB02B883A003FDA064B
:201288008839883A003FA606802091BA0007883A8008D27A003F560600802034810010341C
:2012900010BFFFC42088703A003FCF062818D5FA2006D5FA200ED7FA01802034DEFFFC0491
:2012980031BFFFC463003FCC3108703A3150703A1A403FCCDC800215DC400115DFC0031546
:2012A000DC00001563403FD83823883A201490FA280AD7FA401690FA201D883A4825883A97
:2012A80039C03FCC4B0DC83A68004F262B40005C3B40582601803B0E60004F1E5800922684
:2012B00031BFFFC43000E3264A403FE048003F1E3080070810004D1E00C008041987C83A3C
:2012B80058C6983A5984D83A180CC03A1184B03A5085C83A10C1002C1800802604010034CF
:2012C000843FFFC41420703A8009883A002515C010FFFEC480C4983A1C8096161C87C83A91
:2012C8001C000044010008042409C83A1108983A1404D83A0025883A2008C03A1104B03A4D
:2012D00010C001CC1800042610C003CC18C001201800011E1080010410C1002C1800692617
:2012D80090C0004419003FE020006E1E100491BA1008D27A18803FCC100495FA8C403FCC9E
:2012E000882297FA1104B03A1444B03ADFC00317DC800217DC400117DC000017DEC0040477
:2012E800F800283A300035266247C83A6823883A48007D1E5000992618FFFFC41800B2264D
:2012F00060803FE010007B26401D883A70005526008020347100103410BFFFC42088703AB7
:2012F80000FFFFC4003FE306583FB0262B403FCC39404F2601BFEB0E4A403FE0483FF31E21
:20130000308007085AC10034103FB32600800044003FB7060180460E600025264A403FE0AE
:20130800483FEA1E5AC10034308007081000671E00C008041987C83A58C6983A5984D83A46
:20131000180CC03A1184B03A1285883A10C1002C18002A269480004490C03FE01800311E34
:201318001008D07A00DF803418FFFFC41080004C20C8703A2084B03A003FB10648800044E8
:2013200010803F8C1000401E48006A1E50008126583FB82652C5C83A1101002C200081268A
:201328005A85C83A6823883A0025883A003FA4065800152631BFFFC4300064264A403FE0FE
:20133000483FD926003FC1064C80004490803F8C10004D1E4800611E50007626583FA52696
:2013380052C5883A10C1002C1800742600FF003418FFFFC410C4703A0480004410C001CC1D
:20134000183F911E101CD0FA90803FE0103FAF1E0080203410BFFFC47088703A9007883AE5
:20134800003F940600FFFFC40009883A003F9106303FE5266247C83A48002D2660803FE08A
:20135000103FA11E528100341880070810004C1E0080080410C5C83A5084983A50C6D83A16
:201358001004C03A1888B03A22C5883A6025883A003FB606013F0034213FFFC490E5C83AE4
:201360001104703A003F6E0652E1C83A8081002C1000251E803F5C1E0023883A0007883A5F
:201368000009883A003F730660803FE0103F861E52810034188007081000062601000044C1
:201370005905C83A6025883A003F4A0600800044003F9D060080080410C5C83A5084983A78
:2013780050C6D83A1004C03A1888B03A003FF40650000A2618FFFFC41800322660803FE093
:20138000103FD126003F700690803FE0103FC51E52C5883A1004D07A003FB806401D883A9E
:201388006025883A003FB8065AA1C83A6823883A003F350650000A1E58000E1E01002034EC
:201390000023883A213FFFC4003F650652C5883A003F7E0652C5C83A003F2606503F5A265C
:20139800583F5A262080102C103F58264080102C103F561E6823883A401D883A003F5306B2
:2013A00001000044003FB8065A85C83A6025883A003F1806580004266823883A4009883A8C
:2013A800003F34061000051E0023883A0009883A003F30064009883A003F2E060025883AEF
:2013B000003F8E0652C5883A6025883A003F5F06200AD5FA00C0203418FFFFC429403FCC2B
:2013B80029801FF0200ED7FA1906703A3000061E288027B01000061E00A0003410BFFFC428
:2013C0003885883AF800283A0005883AF800283A2880259018C020341000051E28BFDA8412
:2013C8001884983A383FF9260085C83AF800283A008025841145C83A1884D83A003FF906B3
:2013D000DEFFFD04DFC00215DC400115DC000015200012262022D7FA2021883A20001D1685
:2013D8008009883A002515C0100B883A008027841145C83A10C025C81800181E28C0024813
:2013E00018003426297FFE048160983A00C0203418FFFFC480E0703A000003060023883A38
:2013E8000005883A0021883A10803FCC100495FA8C403FCC882297FA1404B03A1444B03AA7
:2013F000DFC00217DC400117DC000017DEC00304F800283A0121C83A003FE10610C026902F
:2013F8001800071E28C006C40100014480C6983A2149C83A8120D83A1806C03A80E0B03A07
:2014000028C001901800021E28FFFEC480E0983A00FF003418FFFFC4810001CC80CC703AAF
:2014080020000926810003CC210001202000061E318001043101002C2000032630CC703A9C
:2014100000C027C41945C83A302091BA8020D27A003FD50601002034213FFFC48120703A4D
:20141800003FD106DEFFFE04DFC00115DC00001520000F262021883A002515C0100B883AEA
:20142000008027841145C83A10C025C81800111E28C0024818002D26297FFE048160983A2B
:2014280000C0203418FFFFC480E0703A000002060005883A0021883A10803FCC100495FABC
:201430001404B03ADFC00117DC000017DEC00204F800283A10C026901800071E290006C43C
:201438008106983A010001442149C83A8120D83A1808C03A2420B03A28C001901800021EDD
:2014400028FFFEC480E0983A01BF003431BFFFC480C001CC8188703A1800092680C003CCB4
:2014480018C001201800061E2100010420C1002C1800032600C027C42188703A1945C83A7D
:20145000202091BA8020D27A003FDB0601002034213FFFC48120703A003FD70600BFFFD474
:20145800110004362080403010000E26014008040000040600804034208007362008D63A75
:201460000140020400C000F420C7883A18A28E032885C83AF800283A2008D43A01400404F5
:20146800003FF8062008D23A01400604003FF5060005883A2000072620C0004C2008D07ABC
:20147000180001261145883A294B883A203FFA1EF800283AF800283A008000F4200B883A43
:201478001129731700251F81008000F4200B883A112973170025CF41DEFFF604DC40011568
:201480002C4002C4DC800215DFC00915DF000815DDC00715DD800615DD400515DD00041590
:20148800DCC00315DC000015888005E82025883A10001B1E294004682800821E00263F0058
:201490000440040401C000840080060404C000F49CE2DB049885883A1400011710FFFE04F0
:2014980080C08B26808001178100031700FFFF0410C4703A814002178085883A10C0011787
:2014A000290003152140021518C0005410C001159009883A002641408080020400006C06E7
:2014A80000BFFE0488A2703A880066168940653600263F0088807E28100122268804D27AE3
:2014B00010006F2610C001681800FE1E8804D1BA11C00E44380890FA12000E0404C000F42A
:2014B8009CE2DB049909883A24000117213FFE0424000B2601BFFF04000003061800D60E98
:2014C0008400031724000626808001171184703A1447C83A19400408283FF826400F883A6F
:2014C8009C000417024000F44A62DD0482405F2680C0011700BFFF041884703A1447C83A86
:2014D0001900041020010A269A4005159A4004151800FF0E10C080281800C11E1006D0FA23
:2014D8001008D17A0080004418C00044180690FA994001171104983A98C7883A19000017E0
:2014E0001144B03A197FFE048140031581000215988001151C000015240003153807D0BA3E
:2014E8000100004420C8983A110045362086703A18000A1E00FFFF042109883A38CE703A2B
:2014F0002086703A39C001041800041E2109883A2086703A39C00104183FFC2602BFFF04DD
:2014F800381690FA3819883A9AD7883A5811883A408003174080BC2610C001171021883A34
:20150000108003171A86703A1C4BC83A298004103000BA26283FF71680C7883A19400117B3
:20150800818002179009883A29400054194001153080031511800215002641408080020405
:201510000000030600800304908000150005883ADFC00917DF000817DDC00717DD8006174D
:20151800DD400517DD000417DCC00317DC800217DC400117DC000017DEC00A04F800283A2A
:201520000100800401C0100402000FC4003F93061400031739C00084143F721E9C0004175F
:20152800024000F44A62DD04827FA11E3807D0BA010000449880011720C8983A113FBB2EEF
:201530009C00021700BFFF0485400117A8AC703AB4400336B445C83A10C004081800541EBB
:20153800008000F410A9701700C000F41D70211710BFFFD885B9883A8D6B883A1000D626FA
:20154000AD4403C400BC0004A8AA703AA80B883A9009883A0025AC80102F883A10BFFFD84F
:201548001000A826BF00A636008000F41530C917AD29883A1530C915A007883AE5C0EC2696
:20155000008000F410A9701710BFFFD81000EF26BF39C83AE0C7883A008000F410F0C91547
:20155800BF0001CCE000C526BF2FC83ABDC0020405040204A729C83ABD6B883AA569C83ACE
:20156000A503FFCCA00B883A9009883A0025AC8010FFFFE01800F31E15C5C83A152B883AEA
:20156800008000F41170C9179DC00215AD400054A169883A1530C915BD40011584C0D62697
:20157000B08004281000D62680C00117013FFE04B0BFFD041104703A18C0004C1886B03A7E
:2015780080C00115010001448087883A1900011519000215108004281000DF1EBD400117B1
:20158000B821883A008000F410B020171500022E008000F415302015008000F410B01F17A8
:2015880015006A2E008000F415301F150000670688C0005480C001158463883A10800054BD
:201590009C400215888001159009883A0026414080800204003F7E0681000317003F05067A
:201598001006D27A19000168200050261900056820008C1E19401704280A90FA190016C446
:2015A000994B883A28C00017297FFE0428C0742601BFFF04190001172188703A1100022ED2
:2015A80018C0021728FFFB1E19400317988001178140031580C002152C0002151C000315A8
:2015B000003F360610C0056818004A2610C0156818007B1E8804D33A11C01BC4380890FACA
:2015B80012001B84003EFD0663000044608000CC42000204103F3E1E0000450681000217F6
:2015C000898000548180011520800315110002158463883A9C4005159C4004152880005427
:2015C800888001158A4003158A40021580C7883A194000159009883A0026414080800204A3
:2015D000003F4306880ED0FA88800204003EBF068085883A10C001179009883A18C00054CC
:2015D80010C001150026414080800204003F380689000054810001158463883A9C400515D0
:2015E0009C40041519000054890001158085883A8A4003158A40021510C000159009883A20
:2015E8000026414080800204003F29061006D1BA19400E44280A90FA19000E04003FB006A0
:2015F00084C046269C0002178540011700BFFF04A8AA703AAC45C83AAC40023610C00408E8
:2015F800183F931E9009883A002641400005883A003F170611C01704380890FA120016C404
:20160000003EB6065880021739FFFFC412C0701E388000CC5AFFFE04103FFA1E98C00117CE
:201608000104303A10C4703A988001152109883A113F2336203F22262086703A1800041EE1
:201610002109883A2086703A63000104183FFC26600F883A003EE206AD400404003F2B06E1
:201618002009D0BA00800044998001171104983A1184B03A98800115003F8D06BD69883ABC
:201620000529C83AA503FFCCA00B883A9009883A0025AC8010FFFFE0183F3F260029883A59
:20162800003F3F06190015682000201E1006D33A19401BC4280A90FA19001B84003F7006A6
:2016300010C055681800201E8804D3FA11C01E04380890FA12001DC4003E8006008000F476
:2016380010F0C917A8C7883A10F0C915003F1406E083FFCC103F121E9C000217B56B883A06
:20164000AD40005485400115003F3E06008000F415E97015003F1206B821883A003F390684
:2016480000800044B8800115003FAE06190055682000191E1006D3FA19401E04280A90FA36
:2016500019001DC4003F4E06108155681000191E8804D4BA11C01F44380890FA12001F040B
:20165800003E5E06E73FFE04AF2B883AADEBC83A0029883A003F0A06814002049009883A16
:201660000025CF409C000217008000F41530C91785400117003F1B0618C155681800091ED6
:201668001006D4BA19401F44280A90FA19001F04003F33060100FE0401C01FC402001F8446
:20167000003E46060140FE0401001F84003F2C0698800117003F950620C000CC2005883ADB
:201678001800362631FFFFC4300033262811883A2007883A0000030639FFFFC439BFFFE0A3
:2016800030002D1E18C00044198000CC1A3FFFC5303FF91E390001302000221E29003FCCAD
:20168800200C923A3A0004303108B03A200C943A310CB03A40000E1E393FFC042008D13A81
:20169000210000442008913A1909883A1980001519800115198002151980031518C0040460
:2016980020FFFA1E3900030C39C003CC20000D261811883A420001043A09C83A1909883A3D
:2016A0002100012841BFFF15203FFA1E393FFF042008D0BA39C000CC21000044200890BA8C
:2016A8001907883A3800042619CF883A18C00044197FFFC538FFFD1EF800283A2007883A27
:2016B000300F883A003FD306DEFFFE04DC000015008000F42021883A2809883ADFC0011512
:2016B800103022150026438010FFFFD818000426DFC00117DC000017DEC00204F800283AE2
:2016C00000C000F418F02217183FF92680C00015DFC00117DC000017DEC00204F800283AA2
:2016C8002144B03A108000CC1000141E2080001728C0001710C0111E01FFBFF401A0207478
:2016D00039FFBFC431A02004000003062080001728C0001710C0091E11C7883A0084303A0C
:2016D8001884703A1184703A2100010429400104103FF6260005883AF800283A20C000036A
:2016E00018803FCC1080201C10BFE0041000071E00000A0620C000032940004418803FCC50
:2016E8001080201C10BFE00410000726298000072100004430BFF72618803FCC28C0000377
:2016F00010C5C83AF800283A28C000030005883A10C5C83AF800283ADEFFFB04DCC0031536
:2016F80004C000F4DC800215DC400115DC000015DFC004152821883A9CE2DB042025883A5D
:2017000000263F00988002171440011700BFFF0488A2703A8C21C83A8403FBC48020D33A8F
:20170800843FFFC48020933A8084000810000626000B883A9009883A0025AC8098C002179C
:201710001C47883A10C00A269009883A002641400005883ADFC00417DCC00317DC800217E6
:20171800DC400117DC000017DEC00504F800283A040BC83A9009883A0025AC8010BFFFD826
:2017200010000D26008000F410B0C91798C002178C23C83A8C4000541421C83A1C40011567
:20172800008000F49009883A1430C9150026414000800044003FE706000B883A9009883AF1
:201730000025AC80990002171107C83A19400410283FDD1E014000F42969701718C0005433
:2017380020C001151145C83A014000F428B0C915003FD50628004F26DEFFFD04DC40011591
:20174000DC0000152023883A2821883ADFC0021500263F0081FFFF1700BFFF8480FFFE0414
:201748003884703A010000F4188D883A2122DB043140011722000217027FFF042A4A703A37
:20175000418064263140011539C0004C3151883A3800281E82BFFE174200011701C000F43B
:201758001A87C83A1A40021739E2DD041285883A4200004C49C04C261A8003174A80031567
:2017600052400215400071261140005419400115308000151140802828002C1E100AD0FAC1
:20176800100CD17A0080004429400044280A90FA21C001171184983A214B883A298000177F
:2017700011C4B03A29FFFE0419C00315198002152080011528C0001530C003158809883AC1
:20177800DFC00217DC400117DC000017DEC003040026414141C0011739C0004C38000E1E63
:2017800001C000F41145883A39E2DD0431400217124000541891883A29C0522631800317B9
:2017880029800315314002151A40011540800015003FD806F800283A11400054817FFF1583
:201790003080001511408028283FD426100AD27A298001683000341E100AD1BA29800E4480
:20179800300C90FA29C00E04218D883A3140001731BFFE043140422601FFFF042900011769
:2017A00021C8703A1100022E29400217317FFB1E29800317198003151940021530C002151F
:2017A80028C00315003FCD0640004D1E31000317318002172885883A1140005431000315F2
:2017B00021800215194001151887883A18800015003FC20639C0004C1145883A3800071E23
:2017B80081FFFE1719C7C83A194003171980021711C5883A3140031529800215014000F45F
:2017C00011800054296971171980011520C00215117FB236008000F4117021178809883A6C
:2017C8000025BD80003FAD062980056830000926298015683000191E100AD33A29801BC4FC
:2017D000300C90FA29C01B84003FC7061145883A003FAE0629801704300C90FA29C016C447
:2017D800003FC10620C0051520C0041519C0031519C002151A40011540800015003F9706F6
:2017E000380FD0BA008000442200011711CE983A3A0EB03A21C00115003FBE0629805568D7
:2017E8003000051E100AD3FA29801E04300C90FA29C01DC4003FAC06294155682800051EE9
:2017F000100AD4BA29801F44300C90FA29C01F04003FA5060180FE0401C01F84003FA2069B
:2017F800110000541900011530800015003F7B06DEFFF904DFC00615DF000515DF00050443
:20180000E13FFF15E17FFE15E1BFFD15E1FFFC15E0800217D8800015E1FFFC17E1BFFD17F1
:20180800E17FFE17E13FFF1700261A00E037883ADFC00117DF000017DEC00204F800283A51
:20181000DEFFF904DF000615DF000604E13FFB15E17FFA15E0BFFA17E0BFFF150005303A8A
:20181800E0BFFE15E0FFFE1700BFFF841884703A1001703AE0BFFE17E0BFFD1500C000445E
:20182000E0BFFF171884983A1007883AD0A6BB171884B03AD0A6BB15D0A6BB17100170FAD5
:20182800E0BFFD17E0BFFC15E0BFFC171001703A0001883A0005883AE037883ADF00001777
:20183000DEC00104F800283ADEFFF904DF000615DF000604E13FFB15E17FFA15E0BFFA178F
:20183800E0BFFF150005303AE0BFFE15E0FFFE1700BFFF841884703A1001703AE0BFFE17D1
:20184000E0BFFD1500C00044E0BFFF171884983A0084303A1007883AD0A6BB171884703A5B
:20184800D0A6BB15D0A6BB17100170FAE0BFFD17E0BFFC15E0BFFC171001703A0001883AE4
:201850000005883AE037883ADF000017DEC00104F800283ADEFFFC04DF000315DF0003042B
:20185800E13FFE15E17FFD15000530FAE0BFFF1500C00044E0BFFD171884983A1007883AEB
:20186000E0BFFF171884703A1004C03A10803FCCE037883ADF000017DEC00104F800283AF8
:20186800DEFFF504DFC00A15DF000915DF000904E13FFA15E17FF915E1BFF815E1FFF715AD
:2018700000BFFA84E0BFFF15E0BFF917E0BFFE15E0BFFE17108008081000251E0005303AF1
:20187800E0BFFC15E0FFFC1700BFFF841884703A1001703AE0BFFC17E0BFFD15E0BFFE1754
:20188000100890FAE0FFF817008000F42085883A10F0D315E0BFFE17100890FAE0FFF717B2
:20188800008000F42085883A10F0D415E0BFF81710000526E0BFFE17100B883AE13FFA17D1
:201890000026040000000406E0BFFE17100B883AE13FFA1700260C80E0BFFF15E0BFFD172A
:20189800E0BFFB15E0BFFB171001703A0001883AE0BFFF17E037883ADFC00117DF00001717
:2018A000DEC00204F800283ADEFFFC04DF000315DF000304E13FFF15E17FFE15E1BFFD1517
:2018A800E0FFFE17E0BFFF1718800C2600000806E0FFFF1718800104E0BFFF15E0BFFE17A6
:2018B00011000104E13FFE1518C0001710C00015E0FFFE17E0BFFD1718BFF51E0001883AA7
:2018B800E037883ADF000017DEC00104F800283ADEFFFE04DFC00115DF000015D839883AE9
:2018C000018000F431A97D04014000F42962DB04010000F421297D0400262880018000B4D6
:2018C80031808C04014000B429400804010000B42100080400262880018000F431A2DB047E
:2018D000014000F429619804010000F4212198040026288000277080002790000001883A6B
:2018D800E037883ADFC00117DF000017DEC00204F800283ADEFFFD04DFC00215DF000115E3
:2018E000DF0001040009883A002655400001883A00265900018000F431A2CE04014000F4ED
:2018E8002962CE04010000F42122CE040027A8C000278380010000B4211E27040028210058
:2018F000D0A6BC17D0E6BD17D126BE17200D883A180B883A1009883A002026C0E0BFFF15D1
:2018F80001000044002762C0E13FFF1700282240DEFFFE04DF000115DF000104E13FFF1596
:201900000001883AE037883ADF000017DEC00104F800283ADEFFFE04DF000115DF00010480
:20190800E13FFF150001883AE037883ADF000017DEC00104F800283ADEFFF904DF00061528
:20191000DF000604E13FFA150005303AE0BFFD15E0FFFD1700BFFF841884703A1001703A49
:20191800E0BFFD17E0BFFF15D0A00C1710C000C400BFFF041884703AD0A00C15D0E00C17B6
:20192000E0BFFA171887883A0080013410BE000410C0072EE0BFFF17E0BFFC15E0BFFC17F3
:201928001001703A0001883A00BFFFC400000C06D0A00C17E0BFFE15D0E00C17E0BFFA17C5
:201930001885883AD0A00C15E0BFFF17E0BFFB15E0BFFB171001703A0001883AE0BFFE1760
:20193800E037883ADF000017DEC00104F800283ADEFFFD04DFC00215DF000115DF00010456
:20194000E13FFF15E13FFF1700274980E037883ADFC00117DF000017DEC00204F800283AA9
:20194800DEFFFD04DFC00215DF000115DF000104E13FFF15D1600F04E13FFF1700277900C4
:20195000E037883ADFC00117DF000017DEC00204F800283ADEFFFD04DFC00215DF0001156A
:20195800DF000104E13FFF150027F9C0008000441001703A0001883A0001883AE037883A99
:20196000DFC00117DF000017DEC00204F800283ADEFFFE04DFC00115DF000015D839883A61
:2019680001C0FA0401800084000B883A010001342104080400272E00000D883A000B883A76
:20197000010000F42124F00400267580010000F42124E604002652000001883A0001883AEC
:20197800E037883ADFC00117DF000017DEC00204F800283ADEFFFA04DFC00515DF0004153F
:20198000DF000404E13FFE15E17FFD15E1BFFC15E0BFFE1710800017E0BFFF15E0BFFF1747
:2019880010C00A04E0BFFE1710800217100F883AE1BFFC17E17FFD171809883A0026C20031
:20199000E037883ADFC00117DF000017DEC00204F800283ADEFFFA04DFC00515DF00041527
:20199800DF000404E13FFE15E17FFD15E1BFFC15E0BFFE1710800017E0BFFF15E0BFFF172F
:2019A00010C00A04E0BFFE1710800217100F883AE1BFFC17E17FFD171809883A0026E400F7
:2019A800E037883ADFC00117DF000017DEC00204F800283ADEFFFC04DFC00315DF00021511
:2019B000DF000204E13FFE15E0BFFE1710800017E0BFFF15E0BFFF1710C00A04E0BFFE17AA
:2019B80010800217100B883A1809883A0026AC40E037883ADFC00117DF000017DEC002046A
:2019C000F800283ADEFFFA04DFC00515DF000415DF000404E13FFE15E17FFD15E1BFFC15E4
:2019C800E0BFFE1710800017E0BFFF15E0BFFF1710800A04E1BFFC17E17FFD171009883A9C
:2019D0000026B2C0E037883ADFC00117DF000017DEC00204F800283ADEFFFA04DFC0051547
:2019D800DF000415DF000404E13FFF15E17FFE15E1BFFD15E0BFFF1700C0004410C0081511
:2019E000E0BFFF1710800017108001041007883AE0BFFF171080081718800035E0BFFE1738
:2019E800E0FFFD17D8000015E1FFFF17018000B4319A0604180B883A1009883A0025FF001B
:2019F000E0BFFF1710000915E0BFFF1710800204D0E6C017E1FFFF17018000B4319A890499
:2019F800180B883A1009883A002736401000040EE0FFFF1700A0003410BFFFC41880011547
:201A00000001883AE037883ADFC00117DF000017DEC00204F800283ADEFFF804DF000715AB
:201A0800DF000704E13FF915E0BFF917E0BFFD15E0BFFD1710800017E0BFFC15E0BFFC178A
:201A10001080010410800037E0BFFB15E0BFFB171080C00C10006D26E0BFFB171080400C6E
:201A18001000352600800074E0BFFF15E0BFFD1710800A17108000441081FFCCE0BFFA155A
:201A2000E0BFFD1710800B17E0FFFA1718801526E0BFFC1710800037E0BFFF15E0BFFF179D
:201A280010A0000C10001126E0BFFD1710800A17E0FFFF171809883AE0FFFD171885883A0D
:201A300011000E05E0BFFD1710800A171080004410C1FFCCE0BFFD1710C00A150001883A39
:201A3800003FE2060001883A000001060001883AE0BFFF1710BFFFEC10000F26E0BFFD1773
:201A400010C0081700BFFF841886703AE0BFFD1710C00815E0BFFC17108001041007883A4D
